:100A6300536F6E67206F6620746865206461790038
:100A730056616174686920436F6D696E67005772D0
:0D0A83006F6E672050617373776F726400AF
:040B4200020D0000A0
:070ABB00120AEB7F0A7E0026
:100AC200E4FDFCC3ED9FEC9E5015E4FBFA0BBB006A
:0F0AD200010ABA04F8BBFBF50DBD00010C80E46E
:010AE10022F2
:090AE2007FF47E01120AC27F01BB
:100AEB008F90C2B0C2B1D2B27F017E00120AC2C2D5
:020AFB00B22225
:100B30008F90D2B0C2B1D2B27F017E00120AC2C27F
:020B4000B222DF
:100AFD007F38120ABB7F0F120ABB7F01120ABB7F20
:0B0B0D0081120AEB7F0A7E00020AC280
:060A90008B088A09890AA7
:100A9600E4F50BF50CAB08AA09A90A850C82850BAF
:100AA600831209F3FF600D120B30050CE50C70E59F
:040AB600050B80E1CB
:010ABA002219
:100B1800AB07AA06AE0DAF0E7C007D0A120A20EFC5
:080B28002BF50EEE3AF50D224B
:10096700D2A3D2A2D2A1D2A0C2A7C2A6C2A5C2A414
:1009770020A00C7F37120B307F077E00120B182048
:10098700A10C7F34120B307F047E00120B1820A2BB
:100997000C7F31120B307F017E00120B1820A3054C
:0609A7007F65120B3022F7
:10091B00D2A3D2A2D2A1D2A0C2A7C2A6C2A5C2A460
:10092B0020A00C7F38120B307F087E00120B182092
:10093B00A10C7F35120B307F057E00120B1820A205
:10094B000C7F32120B307F027E00120B1820A30B90
:0C095B007F30120B30E4FFFE120B18225C
:1009AD00D2A3D2A2D2A1D2A0C2A7C2A6C2A5C2A4CE
:1009BD0020A00C7F39120B307F097E00120B1820FE
:1009CD00A10C7F36120B307F067E00120B1820A271
:1009DD000C7F33120B307F037E00120B1820A30502
:0609ED007F3D120B3022D9
:100A3200D2A3D2A2D2A1D2A0C2A7C2A6C2A5C2A448
:100A420020A0057F2F120B3020A1057F78120B30DA
:100A520020A2057F2D120B3020A3057F2B120B3015
:010A62002271
:10080000120AFD7F1E7E00120AC2D2A7D2A6D2A56E
:10081000D2A4C2A3C2A2C2A1C2A020A40512096789
:10082000801620A50512091B800E20A6051209AD11
:10083000800620A703120A32C3E50E94E8E50D6492
:1008400080948340BEE50E64FA7004E50D641C706C
:1008500025F50DF50E7F01120AEB7BFF7A0A79630D
:10086000120A907FC0120AEB7BFF7A0A7973120A90
:1008700090120AE2808DE4F50DF50E7F01120AEB6D
:0F0880007BFF7A0A7981120A90120AE2020803BA
:0300000002088F64
:0C088F00787FE4F6D8FD75810E0208D6D3
:1009F300BB010CE58229F582E5833AF583E02250B9
:100A030006E92582F8E622BBFE06E92582F8E22202
:0D0A1300E58229F582E5833AF583E493221C
:100A2000EF8DF0A4A8F0CF8CF0A428CE8DF0A42EEA
:020A3000FE22A4
:10089B00020800E493A3F8E493A34003F68001F26B
:1008AB0008DFF48029E493A3F85407240CC8C3335E
:1008BB00C4540F4420C8834004F456800146F6DF2D
:1008CB00E4800B0102040810204080900B42E47E70
:1008DB00019360BCA3FF543F30E509541FFEE49322
:1008EB00A360010ECF54C025E060A840B8E493A3E9
:1008FB00FAE493A3F8E493A3C8C582C8CAC583CA14
:10090B00F0A3C8C582C8CAC583CADFE9DEE780BECB
:010B460000AE
:00000001FF
